{
  "_format": "hh-sol-artifact-1",
  "contractName": "Gag",
  "sourceName": "contracts/Gag.sol",
  "abi": [
    {
      "inputs": [],
      "stateMutability": "nonpayable",
      "type": "constructor"
    },
    {
      "anonymous": false,
      "inputs": [
        {
          "indexed": true,
          "internalType": "address",
          "name": "from",
          "type": "address"
        },
        {
          "indexed": false,
          "internalType": "string",
          "name": "imageUrl",
          "type": "string"
        },
        {
          "indexed": false,
          "internalType": "uint256",
          "name": "timestamp",
          "type": "uint256"
        },
        {
          "indexed": false,
          "internalType": "uint256",
          "name": "likes",
          "type": "uint256"
        }
      ],
      "name": "newImage",
      "type": "event"
    },
    {
      "anonymous": false,
      "inputs": [
        {
          "indexed": false,
          "internalType": "uint256",
          "name": "likes",
          "type": "uint256"
        }
      ],
      "name": "updateLikes",
      "type": "event"
    },
    {
      "inputs": [],
      "name": "getAllImages",
      "outputs": [
        {
          "components": [
            {
              "internalType": "address",
              "name": "sender",
              "type": "address"
            },
            {
              "internalType": "string",
              "name": "imageUrl",
              "type": "string"
            },
            {
              "internalType": "uint256",
              "name": "timestamp",
              "type": "uint256"
            },
            {
              "internalType": "uint256",
              "name": "likes",
              "type": "uint256"
            }
          ],
          "internalType": "struct Gag.Image[]",
          "name": "",
          "type": "tuple[]"
        }
      ],
      "stateMutability": "view",
      "type": "function"
    },
    {
      "inputs": [
        {
          "internalType": "uint256",
          "name": "_id",
          "type": "uint256"
        }
      ],
      "name": "like",
      "outputs": [],
      "stateMutability": "nonpayable",
      "type": "function"
    },
    {
      "inputs": [
        {
          "internalType": "string",
          "name": "_imageUrl",
          "type": "string"
        }
      ],
      "name": "sendImage",
      "outputs": [],
      "stateMutability": "nonpayable",
      "type": "function"
    }
  ],
  "bytecode": "0x60806040523480156200001157600080fd5b506200005d6040518060400160405280601181526020017f436f6e7472616374206465706c6f7965640000000000000000000000000000008152506200006360201b620004c01760201c565b620001f7565b62000103816040516024016200007a919062000170565b6040516020818303038152906040527f41304fac000000000000000000000000000000000000000000000000000000007bffffffffffffffffffffffffffffffffffffffffffffffffffffffff19166020820180517bffffffffffffffffffffffffffffffffffffffffffffffffffffffff83818316178352505050506200010660201b60201c565b50565b60008151905060006a636f6e736f6c652e6c6f679050602083016000808483855afa5050505050565b60006200013c8262000194565b6200014881856200019f565b93506200015a818560208601620001b0565b6200016581620001e6565b840191505092915050565b600060208201905081810360008301526200018c81846200012f565b905092915050565b600081519050919050565b600082825260208201905092915050565b60005b83811015620001d0578082015181840152602081019050620001b3565b83811115620001e0576000848401525b50505050565b6000601f19601f8301169050919050565b610e2c80620002076000396000f3fe608060405234801561001057600080fd5b50600436106100415760003560e01c80637b7284fc14610046578063e82935da14610064578063f2bc01dd14610080575b600080fd5b61004e61009c565b60405161005b91906109f3565b60405180910390f35b61007e60048036038101906100799190610821565b6101f7565b005b61009a600480360381019061009591906107e0565b61034d565b005b60606000805480602002602001604051908101604052809291908181526020016000905b828210156101ee57838290600052602060002090600402016040518060800160405290816000820160009054906101000a900473ffffffffffffffffffffffffffffffffffffffff1673ffffffffffffffffffffffffffffffffffffffff1673ffffffffffffffffffffffffffffffffffffffff16815260200160018201805461014990610cbc565b80601f016020809104026020016040519081016040528092919081815260200182805461017590610cbc565b80156101c25780601f10610197576101008083540402835291602001916101c2565b820191906000526020600020905b8154815290600101906020018083116101a557829003601f168201915b5050505050815260200160028201548152602001600382015481525050815260200190600101906100c0565b50505050905090565b6000808281548110610232577f4e487b7100000000000000000000000000000000000000000000000000000000600052603260045260246000fd5b90600052602060002090600402019050600181600301546102539190610bd6565b816003018190555061030e604051806060016040528060228152602001610dd56022913982600101805461028690610cbc565b80601f01602080910402602001604051908101604052809291908181526020018280546102b290610cbc565b80156102ff5780601f106102d4576101008083540402835291602001916102ff565b820191906000526020600020905b8154815290600101906020018083116102e257829003601f168201915b50505050508360030154610559565b7f40329a85130e8c7e94b15329731a7ee8091f79d424a1e4bdb537278359afa70381600301546040516103419190610aff565b60405180910390a15050565b61038d6040518060400160405280602081526020017f2573206861732073656e6420696d6167652120496d6167652075726c3a20257381525033836105f8565b600060405180608001604052803373ffffffffffffffffffffffffffffffffffffffff1681526020018381526020014281526020016000815250908060018154018082558091505060019003906000526020600020906004020160009091909190915060008201518160000160006101000a81548173ffffffffffffffffffffffffffffffffffffffff021916908373ffffffffffffffffffffffffffffffffffffffff16021790555060208201518160010190805190602001906104539291906106c0565b50604082015181600201556060820151816003015550503373ffffffffffffffffffffffffffffffffffffffff167f4bf54df843c18987d4b986e8d91b1159d538578d0083d7656afffc784401ba15824260006040516104b593929190610ac1565b60405180910390a250565b610556816040516024016104d49190610a15565b6040516020818303038152906040527f41304fac000000000000000000000000000000000000000000000000000000007bffffffffffffffffffffffffffffffffffffffffffffffffffffffff19166020820180517bffffffffffffffffffffffffffffffffffffffffffffffffffffffff8381831617835250505050610697565b50565b6105f383838360405160240161057193929190610a7c565b6040516020818303038152906040527ff362ca59000000000000000000000000000000000000000000000000000000007bffffffffffffffffffffffffffffffffffffffffffffffffffffffff19166020820180517bffffffffffffffffffffffffffffffffffffffffffffffffffffffff8381831617835250505050610697565b505050565b61069283838360405160240161061093929190610a37565b6040516020818303038152906040527fe0e9ad4f000000000000000000000000000000000000000000000000000000007bffffffffffffffffffffffffffffffffffffffffffffffffffffffff19166020820180517bffffffffffffffffffffffffffffffffffffffffffffffffffffffff8381831617835250505050610697565b505050565b60008151905060006a636f6e736f6c652e6c6f679050602083016000808483855afa5050505050565b8280546106cc90610cbc565b90600052602060002090601f0160209004810192826106ee5760008555610735565b82601f1061070757805160ff1916838001178555610735565b82800160010185558215610735579182015b82811115610734578251825591602001919060010190610719565b5b5090506107429190610746565b5090565b5b8082111561075f576000816000905550600101610747565b5090565b600061077661077184610b3f565b610b1a565b90508281526020810184848401111561078e57600080fd5b610799848285610c7a565b509392505050565b600082601f8301126107b257600080fd5b81356107c2848260208601610763565b91505092915050565b6000813590506107da81610dbd565b92915050565b6000602082840312156107f257600080fd5b600082013567ffffffffffffffff81111561080c57600080fd5b610818848285016107a1565b91505092915050565b60006020828403121561083357600080fd5b6000610841848285016107cb565b91505092915050565b60006108568383610972565b905092915050565b61086781610c2c565b82525050565b61087681610c2c565b82525050565b600061088782610b80565b6108918185610ba3565b9350836020820285016108a385610b70565b8060005b858110156108df57848403895281516108c0858261084a565b94506108cb83610b96565b925060208a019950506001810190506108a7565b50829750879550505050505092915050565b6108fa81610c68565b82525050565b600061090b82610b8b565b6109158185610bb4565b9350610925818560208601610c89565b61092e81610dac565b840191505092915050565b600061094482610b8b565b61094e8185610bc5565b935061095e818560208601610c89565b61096781610dac565b840191505092915050565b600060808301600083015161098a600086018261085e565b50602083015184820360208601526109a28282610900565b91505060408301516109b760408601826109d5565b5060608301516109ca60608601826109d5565b508091505092915050565b6109de81610c5e565b82525050565b6109ed81610c5e565b82525050565b60006020820190508181036000830152610a0d818461087c565b905092915050565b60006020820190508181036000830152610a2f8184610939565b905092915050565b60006060820190508181036000830152610a518186610939565b9050610a60602083018561086d565b8181036040830152610a728184610939565b9050949350505050565b60006060820190508181036000830152610a968186610939565b90508181036020830152610aaa8185610939565b9050610ab960408301846109e4565b949350505050565b60006060820190508181036000830152610adb8186610939565b9050610aea60208301856109e4565b610af760408301846108f1565b949350505050565b6000602082019050610b1460008301846109e4565b92915050565b6000610b24610b35565b9050610b308282610cee565b919050565b6000604051905090565b600067ffffffffffffffff821115610b5a57610b59610d7d565b5b610b6382610dac565b9050602081019050919050565b6000819050602082019050919050565b600081519050919050565b600081519050919050565b6000602082019050919050565b600082825260208201905092915050565b600082825260208201905092915050565b600082825260208201905092915050565b6000610be182610c5e565b9150610bec83610c5e565b9250827fffffffffffffffffffffffffffffffffffffffffffffffffffffffffffffffff03821115610c2157610c20610d1f565b5b828201905092915050565b6000610c3782610c3e565b9050919050565b600073ffffffffffffffffffffffffffffffffffffffff82169050919050565b6000819050919050565b6000610c7382610c5e565b9050919050565b82818337600083830152505050565b60005b83811015610ca7578082015181840152602081019050610c8c565b83811115610cb6576000848401525b50505050565b60006002820490506001821680610cd457607f821691505b60208210811415610ce857610ce7610d4e565b5b50919050565b610cf782610dac565b810181811067ffffffffffffffff82111715610d1657610d15610d7d565b5b80604052505050565b7f4e487b7100000000000000000000000000000000000000000000000000000000600052601160045260246000fd5b7f4e487b7100000000000000000000000000000000000000000000000000000000600052602260045260246000fd5b7f4e487b7100000000000000000000000000000000000000000000000000000000600052604160045260246000fd5b6000601f19601f8301169050919050565b610dc681610c5e565b8114610dd157600080fd5b5056fe257320686173206265656e206c696b65642120496d616765206c696b65733a202573a2646970667358221220d74ea06f56453c150f289dbf6a8de20d76930738b1af16b835e3dc4dabe7d32364736f6c63430008040033",
  "linkReferences": {},
  "deployedLinkReferences": {}
}